{
  "contractName": "JoCoin",
  "abi": [
    {
      "constant": true,
      "inputs": [],
      "name": "creator",
      "outputs": [
        {
          "name": "",
          "type": "address"
        }
      ],
      "payable": false,
      "stateMutability": "view",
      "type": "function"
    },
    {
      "constant": true,
      "inputs": [],
      "name": "name",
      "outputs": [
        {
          "name": "",
          "type": "string"
        }
      ],
      "payable": false,
      "stateMutability": "view",
      "type": "function"
    },
    {
      "constant": true,
      "inputs": [],
      "name": "decimals",
      "outputs": [
        {
          "name": "",
          "type": "uint256"
        }
      ],
      "payable": false,
      "stateMutability": "view",
      "type": "function"
    },
    {
      "constant": true,
      "inputs": [],
      "name": "owner",
      "outputs": [
        {
          "name": "",
          "type": "address"
        }
      ],
      "payable": false,
      "stateMutability": "view",
      "type": "function"
    },
    {
      "constant": true,
      "inputs": [],
      "name": "symbol",
      "outputs": [
        {
          "name": "",
          "type": "string"
        }
      ],
      "payable": false,
      "stateMutability": "view",
      "type": "function"
    },
    {
      "constant": true,
      "inputs": [],
      "name": "price",
      "outputs": [
        {
          "name": "",
          "type": "uint256"
        }
      ],
      "payable": false,
      "stateMutability": "view",
      "type": "function"
    },
    {
      "inputs": [
        {
          "name": "initialSupply",
          "type": "uint256"
        }
      ],
      "payable": false,
      "stateMutability": "nonpayable",
      "type": "constructor"
    },
    {
      "anonymous": false,
      "inputs": [
        {
          "indexed": true,
          "name": "_from",
          "type": "address"
        },
        {
          "indexed": true,
          "name": "_to",
          "type": "address"
        },
        {
          "indexed": false,
          "name": "_value",
          "type": "uint256"
        }
      ],
      "name": "Transfer",
      "type": "event"
    },
    {
      "anonymous": false,
      "inputs": [
        {
          "indexed": false,
          "name": "currentUser",
          "type": "address"
        },
        {
          "indexed": false,
          "name": "errorType",
          "type": "string"
        },
        {
          "indexed": false,
          "name": "errorMessage",
          "type": "string"
        }
      ],
      "name": "ErrorMessage",
      "type": "event"
    },
    {
      "constant": false,
      "inputs": [
        {
          "name": "coinOwner",
          "type": "address"
        }
      ],
      "name": "setOwner",
      "outputs": [
        {
          "name": "success",
          "type": "bool"
        }
      ],
      "payable": false,
      "stateMutability": "nonpayable",
      "type": "function"
    },
    {
      "constant": false,
      "inputs": [
        {
          "name": "receiver",
          "type": "address"
        },
        {
          "name": "amount",
          "type": "uint256"
        }
      ],
      "name": "sendCoin",
      "outputs": [
        {
          "name": "sufficient",
          "type": "bool"
        }
      ],
      "payable": false,
      "stateMutability": "nonpayable",
      "type": "function"
    },
    {
      "constant": true,
      "inputs": [
        {
          "name": "addr",
          "type": "address"
        }
      ],
      "name": "getBalance",
      "outputs": [
        {
          "name": "",
          "type": "uint256"
        }
      ],
      "payable": false,
      "stateMutability": "view",
      "type": "function"
    }
  ],
  "bytecode": "0x6060604052341561000f57600080fd5b604051602080610b9483398101604052808051906020019091905050806000803373ffffffffffffffffffffffffffffffffffffffff1673ffffffffffffffffffffffffffffffffffffffff1681526020019081526020016000208190555033600160006101000a81548173ffffffffffffffffffffffffffffffffffffffff021916908373ffffffffffffffffffffffffffffffffffffffff1602179055506040805190810160405280600681526020017f4a6f436f696e0000000000000000000000000000000000000000000000000000815250600390805190602001906100fa929190610155565b506040805190810160405280600381526020017f4a434e000000000000000000000000000000000000000000000000000000000081525060049080519060200190610146929190610155565b506002600581905550506101fa565b828054600181600116156101000203166002900490600052602060002090601f016020900481019282601f1061019657805160ff19168380011785556101c4565b828001600101855582156101c4579182015b828111156101c35782518255916020019190600101906101a8565b5b5090506101d191906101d5565b5090565b6101f791905b808211156101f35760008160009055506001016101db565b5090565b90565b61098b806102096000396000f300606060405260043610610099576000357c0100000000000000000000000000000000000000000000000000000000900463ffffffff16806302d05d3f1461009e57806306fdde03146100f357806313af403514610181578063313ce567146101d25780638da5cb5b146101fb57806390b98a111461025057806395d89b41146102aa578063a035b1fe14610338578063f8b2cb4f14610361575b600080fd5b34156100a957600080fd5b6100b16103ae565b604051808273ffffffffffffffffffffffffffffffffffffffff1673ffffffffffffffffffffffffffffffffffffffff16815260200191505060405180910390f35b34156100fe57600080fd5b6101066103d4565b6040518080602001828103825283818151815260200191508051906020019080838360005b8381101561014657808201518184015260208101905061012b565b50505050905090810190601f1680156101735780820380516001836020036101000a031916815260200191505b509250505060405180910390f35b341561018c57600080fd5b6101b8600480803573ffffffffffffffffffffffffffffffffffffffff16906020019091905050610472565b604051808215151515815260200191505060405180910390f35b34156101dd57600080fd5b6101e5610619565b6040518082815260200191505060405180910390f35b341561020657600080fd5b61020e61061f565b604051808273ffffffffffffffffffffffffffffffffffffffff1673ffffffffffffffffffffffffffffffffffffffff16815260200191505060405180910390f35b341561025b57600080fd5b610290600480803573ffffffffffffffffffffffffffffffffffffffff16906020019091908035906020019091905050610645565b604051808215151515815260200191505060405180910390f35b34156102b557600080fd5b6102bd610873565b6040518080602001828103825283818151815260200191508051906020019080838360005b838110156102fd5780820151818401526020810190506102e2565b50505050905090810190601f16801561032a5780820380516001836020036101000a031916815260200191505b509250505060405180910390f35b341561034357600080fd5b61034b610911565b6040518082815260200191505060405180910390f35b341561036c57600080fd5b610398600480803573ffffffffffffffffffffffffffffffffffffffff16906020019091905050610917565b6040518082815260200191505060405180910390f35b600160009054906101000a900473ffffffffffffffffffffffffffffffffffffffff1681565b60038054600181600116156101000203166002900480601f01602080910402602001604051908101604052809291908181526020018280546001816001161561010002031660029004801561046a5780601f1061043f5761010080835404028352916020019161046a565b820191906000526020600020905b81548152906001019060200180831161044d57829003601f168201915b505050505081565b6000600160009054906101000a900473ffffffffffffffffffffffffffffffffffffffff1673ffffffffffffffffffffffffffffffffffffffff163373ffffffffffffffffffffffffffffffffffffffff1614156105145781600260006101000a81548173ffffffffffffffffffffffffffffffffffffffff021916908373ffffffffffffffffffffffffffffffffffffffff16021790555060019050610614565b7f0ff4a24ff3c39bf1d18c1b5f6a0eadd62b386dfaebb97a81c0a1698f5e55bec733604051808273ffffffffffffffffffffffffffffffffffffffff1673ffffffffffffffffffffffffffffffffffffffff1681526020018060200180602001838103835260088152602001807f7365744f776e6572000000000000000000000000000000000000000000000000815250602001838103825260228152602001807f6d73672e73656e646572206973206e6f7420636f6e747261637420637265617481526020017f6f72000000000000000000000000000000000000000000000000000000000000815250604001935050505060405180910390a1600090505b919050565b60055481565b600260009054906101000a900473ffffffffffffffffffffffffffffffffffffffff1681565b6000816000803373ffffffffffffffffffffffffffffffffffffffff1673ffffffffffffffffffffffffffffffffffffffff16815260200190815260200160002054101561076b577f0ff4a24ff3c39bf1d18c1b5f6a0eadd62b386dfaebb97a81c0a1698f5e55bec733604051808273ffffffffffffffffffffffffffffffffffffffff1673ffffffffffffffffffffffffffffffffffffffff1681526020018060200180602001838103835260088152602001807f73656e64436f696e0000000000000000000000000000000000000000000000008152506020018381038252601a8152602001807f4e6f7420656e6f75676820636f696e20696e2062616c616e6365000000000000815250602001935050505060405180910390a16000905061086d565b816000803373ffffffffffffffffffffffffffffffffffffffff1673ffffffffffffffffffffffffffffffffffffffff16815260200190815260200160002060008282540392505081905550816000808573ffffffffffffffffffffffffffffffffffffffff1673ffffffffffffffffffffffffffffffffffffffff168152602001908152602001600020600082825401925050819055508273ffffffffffffffffffffffffffffffffffffffff163373ffffffffffffffffffffffffffffffffffffffff167fddf252ad1be2c89b69c2b068fc378daa952ba7f163c4a11628f55a4df523b3ef846040518082815260200191505060405180910390a3600190505b92915050565b60048054600181600116156101000203166002900480601f0160208091040260200160405190810160405280929190818152602001828054600181600116156101000203166002900480156109095780601f106108de57610100808354040283529160200191610909565b820191906000526020600020905b8154815290600101906020018083116108ec57829003601f168201915b505050505081565b60065481565b60008060008373ffffffffffffffffffffffffffffffffffffffff1673ffffffffffffffffffffffffffffffffffffffff1681526020019081526020016000205490509190505600a165627a7a72305820f7b00ddcde09233a35ba1cc6ef3175f143b535356444060c8be88cefbeaa7f3e0029",
  "source": "pragma solidity ^0.4.18;\n\ncontract JoCoin {\n    // public store of all balances\n    mapping (address => uint) balances;\n    address public creator; // the exchange owner will be the one to create the coin\n    address public owner; // the owner is the freelance worker for whom the coin was created\n    string public name;\n    string public symbol;\n    uint public decimals;\n    uint public price; // price that user wants to charge (KRW/coin)\n\n    // define initial supply tokens to the creator of the contract\n    // after following all the steps in the README file\n    // 1. go to the TOKENS tab in metamask\n    // 2. select \"ADD TOKEN\" button\n    // 3. insert the token address from the migration callback\n    // 4. add the token to get the entire initial supply\n    function JoCoin(uint256 initialSupply) public {\n        // give the creator all of the initial supply\n        balances[msg.sender] = initialSupply;\n        creator = msg.sender;\n        name = \"JoCoin\";\n        symbol = \"JCN\";\n        decimals = 2;\n    }\n\n\tevent Transfer(address indexed _from, address indexed _to, uint256 _value);\n    event ErrorMessage(address currentUser, string errorType, string errorMessage);\n\n    function setOwner(address coinOwner) public returns (bool success) {\n        if (msg.sender == creator) {\n            owner = coinOwner;\n            return true;\n        } else {\n            ErrorMessage(msg.sender, \"setOwner\", \"msg.sender is not contract creator\");\n            return false;\n        }\n    }\n\n\tfunction sendCoin(address receiver, uint amount) public returns(bool sufficient) {\n\t\tif (balances[msg.sender] < amount) {\n            ErrorMessage(msg.sender, \"sendCoin\", \"Not enough coin in balance\");\n            return false;\n        }\n\t\tbalances[msg.sender] -= amount;\n\t\tbalances[receiver] += amount;\n\t\tTransfer(msg.sender, receiver, amount);\n\t\treturn true;\n\t}\n\n\tfunction getBalance(address addr) public view returns(uint) {\n\t\treturn balances[addr];\n\t}\n}",
  "sourcePath": "/Users/jo/Desktop/jocoin/contracts/JoCoin.sol",
  "compiler": {
    "name": "solc",
    "version": "0.4.19+commit.c4cbbb05.Emscripten.clang"
  },
  "schemaVersion": "1.0.1",
  "updatedAt": "2018-02-17T08:12:12.298Z"
}